{
  "contractName": "CarRental",
  "abi": [
    {
      "inputs": [],
      "stateMutability": "nonpayable",
      "type": "constructor"
    },
    {
      "anonymous": false,
      "inputs": [
        {
          "indexed": true,
          "internalType": "address",
          "name": "walletAddress",
          "type": "address"
        },
        {
          "indexed": false,
          "internalType": "uint256",
          "name": "amount",
          "type": "uint256"
        }
      ],
      "name": "Balancewithdraw",
      "type": "event"
    },
    {
      "anonymous": false,
      "inputs": [
        {
          "indexed": true,
          "internalType": "uint256",
          "name": "id",
          "type": "uint256"
        },
        {
          "indexed": false,
          "internalType": "string",
          "name": "name",
          "type": "string"
        },
        {
          "indexed": false,
          "internalType": "string",
          "name": "imgUrl",
          "type": "string"
        },
        {
          "indexed": false,
          "internalType": "uint256",
          "name": "rentfee",
          "type": "uint256"
        },
        {
          "indexed": false,
          "internalType": "uint256",
          "name": "saleFee",
          "type": "uint256"
        }
      ],
      "name": "CarAdded",
      "type": "event"
    },
    {
      "anonymous": false,
      "inputs": [
        {
          "indexed": true,
          "internalType": "uint256",
          "name": "id",
          "type": "uint256"
        },
        {
          "indexed": false,
          "internalType": "string",
          "name": "name",
          "type": "string"
        },
        {
          "indexed": false,
          "internalType": "string",
          "name": "imgUrl",
          "type": "string"
        },
        {
          "indexed": false,
          "internalType": "uint256",
          "name": "rentFee",
          "type": "uint256"
        },
        {
          "indexed": false,
          "internalType": "uint256",
          "name": "saleFee",
          "type": "uint256"
        }
      ],
      "name": "CarMetadataEdited",
      "type": "event"
    },
    {
      "anonymous": false,
      "inputs": [
        {
          "indexed": true,
          "internalType": "uint256",
          "name": "id",
          "type": "uint256"
        },
        {
          "indexed": false,
          "internalType": "enum CarRental.Status",
          "name": "status",
          "type": "uint8"
        }
      ],
      "name": "CarStatusEdited",
      "type": "event"
    },
    {
      "anonymous": false,
      "inputs": [
        {
          "indexed": true,
          "internalType": "address",
          "name": "walletAddress",
          "type": "address"
        },
        {
          "indexed": true,
          "internalType": "uint256",
          "name": "carId",
          "type": "uint256"
        }
      ],
      "name": "CheckIn",
      "type": "event"
    },
    {
      "anonymous": false,
      "inputs": [
        {
          "indexed": true,
          "internalType": "address",
          "name": "walletAddress",
          "type": "address"
        },
        {
          "indexed": true,
          "internalType": "uint256",
          "name": "carid",
          "type": "uint256"
        }
      ],
      "name": "CheckOut",
      "type": "event"
    },
    {
      "anonymous": false,
      "inputs": [
        {
          "indexed": true,
          "internalType": "address",
          "name": "walletAddress",
          "type": "address"
        },
        {
          "indexed": false,
          "internalType": "uint256",
          "name": "amount",
          "type": "uint256"
        }
      ],
      "name": "Deposit",
      "type": "event"
    },
    {
      "anonymous": false,
      "inputs": [
        {
          "indexed": true,
          "internalType": "address",
          "name": "walletAddress",
          "type": "address"
        },
        {
          "indexed": false,
          "internalType": "uint256",
          "name": "amount",
          "type": "uint256"
        }
      ],
      "name": "PaymentMade",
      "type": "event"
    },
    {
      "anonymous": false,
      "inputs": [
        {
          "indexed": true,
          "internalType": "address",
          "name": "walletAddress",
          "type": "address"
        },
        {
          "indexed": false,
          "internalType": "string",
          "name": "name",
          "type": "string"
        },
        {
          "indexed": false,
          "internalType": "string",
          "name": "lastname",
          "type": "string"
        }
      ],
      "name": "UserAdded",
      "type": "event"
    },
    {
      "inputs": [
        {
          "internalType": "address",
          "name": "_newOwner",
          "type": "address"
        }
      ],
      "name": "setOwner",
      "outputs": [],
      "stateMutability": "nonpayable",
      "type": "function"
    },
    {
      "inputs": [
        {
          "internalType": "string",
          "name": "name",
          "type": "string"
        },
        {
          "internalType": "string",
          "name": "lastname",
          "type": "string"
        }
      ],
      "name": "addUser",
      "outputs": [],
      "stateMutability": "nonpayable",
      "type": "function"
    },
    {
      "inputs": [
        {
          "internalType": "string",
          "name": "name",
          "type": "string"
        },
        {
          "internalType": "string",
          "name": "url",
          "type": "string"
        },
        {
          "internalType": "uint256",
          "name": "rent",
          "type": "uint256"
        },
        {
          "internalType": "uint256",
          "name": "sale",
          "type": "uint256"
        }
      ],
      "name": "addCar",
      "outputs": [],
      "stateMutability": "nonpayable",
      "type": "function"
    },
    {
      "inputs": [
        {
          "internalType": "uint256",
          "name": "id",
          "type": "uint256"
        },
        {
          "internalType": "string",
          "name": "name",
          "type": "string"
        },
        {
          "internalType": "string",
          "name": "imgUrl",
          "type": "string"
        },
        {
          "internalType": "uint256",
          "name": "rentFee",
          "type": "uint256"
        },
        {
          "internalType": "uint256",
          "name": "saleFee",
          "type": "uint256"
        }
      ],
      "name": "editCarMetadata",
      "outputs": [],
      "stateMutability": "nonpayable",
      "type": "function"
    },
    {
      "inputs": [
        {
          "internalType": "uint256",
          "name": "id",
          "type": "uint256"
        },
        {
          "internalType": "enum CarRental.Status",
          "name": "status",
          "type": "uint8"
        }
      ],
      "name": "editCarStatus",
      "outputs": [],
      "stateMutability": "nonpayable",
      "type": "function"
    },
    {
      "inputs": [
        {
          "internalType": "uint256",
          "name": "id",
          "type": "uint256"
        }
      ],
      "name": "checkOut",
      "outputs": [],
      "stateMutability": "nonpayable",
      "type": "function"
    },
    {
      "inputs": [],
      "name": "checkIn",
      "outputs": [],
      "stateMutability": "nonpayable",
      "type": "function"
    },
    {
      "inputs": [],
      "name": "deposit",
      "outputs": [],
      "stateMutability": "payable",
      "type": "function",
      "payable": true
    },
    {
      "inputs": [],
      "name": "makePayment",
      "outputs": [],
      "stateMutability": "nonpayable",
      "type": "function"
    },
    {
      "inputs": [
        {
          "internalType": "uint256",
          "name": "amount",
          "type": "uint256"
        }
      ],
      "name": "withdrawBalance",
      "outputs": [],
      "stateMutability": "nonpayable",
      "type": "function"
    },
    {
      "inputs": [
        {
          "internalType": "uint256",
          "name": "amount",
          "type": "uint256"
        }
      ],
      "name": "withdrawOwnerBalance",
      "outputs": [],
      "stateMutability": "nonpayable",
      "type": "function"
    },
    {
      "inputs": [],
      "name": "getOwner",
      "outputs": [
        {
          "internalType": "address",
          "name": "",
          "type": "address"
        }
      ],
      "stateMutability": "view",
      "type": "function",
      "constant": true
    },
    {
      "inputs": [
        {
          "internalType": "address",
          "name": "walletAddress",
          "type": "address"
        }
      ],
      "name": "getUser",
      "outputs": [
        {
          "components": [
            {
              "internalType": "address",
              "name": "walletAddress",
              "type": "address"
            },
            {
              "internalType": "string",
              "name": "name",
              "type": "string"
            },
            {
              "internalType": "string",
              "name": "lastname",
              "type": "string"
            },
            {
              "internalType": "uint256",
              "name": "rentedCarId",
              "type": "uint256"
            },
            {
              "internalType": "uint256",
              "name": "balance",
              "type": "uint256"
            },
            {
              "internalType": "uint256",
              "name": "debt",
              "type": "uint256"
            },
            {
              "internalType": "uint256",
              "name": "start",
              "type": "uint256"
            }
          ],
          "internalType": "struct CarRental.User",
          "name": "",
          "type": "tuple"
        }
      ],
      "stateMutability": "view",
      "type": "function",
      "constant": true
    },
    {
      "inputs": [
        {
          "internalType": "uint256",
          "name": "id",
          "type": "uint256"
        }
      ],
      "name": "getCar",
      "outputs": [
        {
          "components": [
            {
              "internalType": "uint256",
              "name": "id",
              "type": "uint256"
            },
            {
              "internalType": "string",
              "name": "name",
              "type": "string"
            },
            {
              "internalType": "string",
              "name": "imgUrl",
              "type": "string"
            },
            {
              "internalType": "enum CarRental.Status",
              "name": "status",
              "type": "uint8"
            },
            {
              "internalType": "uint256",
              "name": "rentFee",
              "type": "uint256"
            },
            {
              "internalType": "uint256",
              "name": "saleFee",
              "type": "uint256"
            }
          ],
          "internalType": "struct CarRental.Car",
          "name": "",
          "type": "tuple"
        }
      ],
      "stateMutability": "view",
      "type": "function",
      "constant": true
    },
    {
      "inputs": [
        {
          "internalType": "enum CarRental.Status",
          "name": "_status",
          "type": "uint8"
        }
      ],
      "name": "getCarsByStatus",
      "outputs": [
        {
          "components": [
            {
              "internalType": "uint256",
              "name": "id",
              "type": "uint256"
            },
            {
              "internalType": "string",
              "name": "name",
              "type": "string"
            },
            {
              "internalType": "string",
              "name": "imgUrl",
              "type": "string"
            },
            {
              "internalType": "enum CarRental.Status",
              "name": "status",
              "type": "uint8"
            },
            {
              "internalType": "uint256",
              "name": "rentFee",
              "type": "uint256"
            },
            {
              "internalType": "uint256",
              "name": "saleFee",
              "type": "uint256"
            }
          ],
          "internalType": "struct CarRental.Car[]",
          "name": "",
          "type": "tuple[]"
        }
      ],
      "stateMutability": "view",
      "type": "function",
      "constant": true
    },
    {
      "inputs": [],
      "name": "getCurrentCount",
      "outputs": [
        {
          "internalType": "uint256",
          "name": "",
          "type": "uint256"
        }
      ],
      "stateMutability": "view",
      "type": "function",
      "constant": true
    },
    {
      "inputs": [],
      "name": "getContractBalance",
      "outputs": [
        {
          "internalType": "uint256",
          "name": "",
          "type": "uint256"
        }
      ],
      "stateMutability": "view",
      "type": "function",
      "constant": true
    },
    {
      "inputs": [],
      "name": "getTotalPayment",
      "outputs": [
        {
          "internalType": "uint256",
          "name": "",
          "type": "uint256"
        }
      ],
      "stateMutability": "view",
      "type": "function",
      "constant": true
    }
  ],
  "bytecode": "0x608060405234801561001057600080fd5b50600160008190555033600260006101000a81548173ffffffffffffffffffffffffffffffffffffffff021916908373ffffffffffffffffffffffffffffffffffffffff1602179055506000600381905550613c49806100716000396000f3fe6080604052600436106101095760003560e01c80636f9fb98a11610095578063d0e30db011610064578063d0e30db014610353578063d8546f491461035d578063d8d7970014610386578063da76d5cd1461039d578063dd51babf146103c657610109565b80636f9fb98a14610297578063893d20e8146102c25780639a43da73146102ed578063ba38ccf61461031657610109565b80633c69c657116100dc5780633c69c657146101a05780634865bed2146101c95780635e8be190146101f25780636cb4b69d1461022f5780636f77926b1461025a57610109565b8063079eaf341461010e57806313af403514610137578063183ff085146101605780631bd2eeee14610177575b600080fd5b34801561011a57600080fd5b50610135600480360381019061013091906129d2565b6103f1565b005b34801561014357600080fd5b5061015e60048036038101906101599190612980565b6106d2565b005b34801561016c57600080fd5b506101756107a6565b005b34801561018357600080fd5b5061019e60048036038101906101999190612ae2565b610a86565b005b3480156101ac57600080fd5b506101c760048036038101906101c29190612ae2565b610de7565b005b3480156101d557600080fd5b506101f060048036038101906101eb9190612a47565b610fae565b005b3480156101fe57600080fd5b5061021960048036038101906102149190612ae2565b6112a4565b60405161022691906134e3565b60405180910390f35b34801561023b57600080fd5b506102446114f4565b6040516102519190613527565b60405180910390f35b34801561026657600080fd5b50610281600480360381019061027c9190612980565b61158e565b60405161028e9190613505565b60405180910390f35b3480156102a357600080fd5b506102ac6117d1565b6040516102b99190613527565b60405180910390f35b3480156102ce57600080fd5b506102d7611869565b6040516102e491906131e1565b60405180910390f35b3480156102f957600080fd5b50610314600480360381019061030f9190612b0b565b611893565b005b34801561032257600080fd5b5061033d600480360381019061033891906129a9565b611a1d565b60405161034a91906131fc565b60405180910390f35b61035b611e7e565b005b34801561036957600080fd5b50610384600480360381019061037f9190612b47565b611f6f565b005b34801561039257600080fd5b5061039b61212c565b005b3480156103a957600080fd5b506103c460048036038101906103bf9190612ae2565b61238b565b005b3480156103d257600080fd5b506103db6125bc565b6040516103e89190613527565b60405180910390f35b6103fa336125cd565b1561043a576040517f08c379a0000000000000000000000000000000000000000000000000000000008152600401610431906133e3565b60405180910390fd5b6040518060e001604052803373ffffffffffffffffffffffffffffffffffffffff16815260200185858080601f016020809104026020016040519081016040528093929190818152602001838380828437600081840152601f19601f82011690508083019250505050505050815260200183838080601f016020809104026020016040519081016040528093929190818152602001838380828437600081840152601f19601f8201169050808301925050505050505081526020016000815260200160008152602001600081526020016000815250600460003373ffffffffffffffffffffffffffffffffffffffff1673ffffffffffffffffffffffffffffffffffffffff16815260200190815260200160002060008201518160000160006101000a81548173ffffffffffffffffffffffffffffffffffffffff021916908373ffffffffffffffffffffffffffffffffffffffff16021790555060208201518160010190805190602001906105b192919061270d565b5060408201518160020190805190602001906105ce92919061270d565b50606082015181600301556080820151816004015560a0820151816005015560c082015181600601559050503373ffffffffffffffffffffffffffffffffffffffff167f8eab1db142a914aff8b515eedb9177bd7effaef6d714c41e30bdf15206778607600460003373ffffffffffffffffffffffffffffffffffffffff1673ffffffffffffffffffffffffffffffffffffffff168152602001908152602001600020600101600460003373ffffffffffffffffffffffffffffffffffffffff1673ffffffffffffffffffffffffffffffffffffffff1681526020019081526020016000206002016040516106c4929190613239565b60405180910390a250505050565b600260009054906101000a900473ffffffffffffffffffffffffffffffffffffffff1673ffffffffffffffffffffffffffffffffffffffff163373ffffffffffffffffffffffffffffffffffffffff1614610762576040517f08c379a0000000000000000000000000000000000000000000000000000000008152600401610759906132c3565b60405180910390fd5b80600260006101000a81548173ffffffffffffffffffffffffffffffffffffffff021916908373ffffffffffffffffffffffffffffffffffffffff16021790555050565b6107af336125cd565b6107ee576040517f08c379a00000000000000000000000000000000000000000000000000000000081526004016107e590613463565b60405180910390fd5b6000600460003373ffffffffffffffffffffffffffffffffffffffff1673ffffffffffffffffffffffffffffffffffffffff1681526020019081526020016000206003015490506000811415610879576040517f08c379a0000000000000000000000000000000000000000000000000000000008152600401610870906134c3565b60405180910390fd5b6000600460003373ffffffffffffffffffffffffffffffffffffffff1673ffffffffffffffffffffffffffffffffffffffff16815260200190815260200160002060060154426108c991906136a9565b90506000600560008481526020019081526020016000206004015490506108f08282612668565b600460003373ffffffffffffffffffffffffffffffffffffffff1673ffffffffffffffffffffffffffffffffffffffff168152602001908152602001600020600501600082825461094191906135c8565b925050819055506000600460003373ffffffffffffffffffffffffffffffffffffffff1673ffffffffffffffffffffffffffffffffffffffff168152602001908152602001600020600301819055506000600460003373ffffffffffffffffffffffffffffffffffffffff1673ffffffffffffffffffffffffffffffffffffffff1681526020019081526020016000206006018190555060026005600085815260200190815260200160002060030160006101000a81548160ff02191690836002811115610a38577f4e487b7100000000000000000000000000000000000000000000000000000000600052602160045260246000fd5b0217905550823373ffffffffffffffffffffffffffffffffffffffff167fa864a8b988e604bb05d6ce75d53efabb5620c45b15380b7bd0c51dcfa71dda0360405160405180910390a3505050565b610a8f336125cd565b610ace576040517f08c379a0000000000000000000000000000000000000000000000000000000008152600401610ac590613463565b60405180910390fd5b600280811115610b07577f4e487b7100000000000000000000000000000000000000000000000000000000600052602160045260246000fd5b6005600083815260200190815260200160002060030160009054906101000a900460ff166002811115610b63577f4e487b7100000000000000000000000000000000000000000000000000000000600052602160045260246000fd5b14610ba3576040517f08c379a0000000000000000000000000000000000000000000000000000000008152600401610b9a90613363565b60405180910390fd5b6000600460003373ffffffffffffffffffffffffffffffffffffffff1673ffffffffffffffffffffffffffffffffffffffff1681526020019081526020016000206003015414610c28576040517f08c379a0000000000000000000000000000000000000000000000000000000008152600401610c1f906133a3565b60405180910390fd5b6000600460003373ffffffffffffffffffffffffffffffffffffffff1673ffffffffffffffffffffffffffffffffffffffff1681526020019081526020016000206005015414610cad576040517f08c379a0000000000000000000000000000000000000000000000000000000008152600401610ca490613343565b60405180910390fd5b42600460003373ffffffffffffffffffffffffffffffffffffffff1673ffffffffffffffffffffffffffffffffffffffff1681526020019081526020016000206006018190555080600460003373ffffffffffffffffffffffffffffffffffffffff1673ffffffffffffffffffffffffffffffffffffffff1681526020019081526020016000206003018190555060016005600083815260200190815260200160002060030160006101000a81548160ff02191690836002811115610d9b577f4e487b7100000000000000000000000000000000000000000000000000000000600052602160045260246000fd5b0217905550803373ffffffffffffffffffffffffffffffffffffffff167ff65ce03794824579bcd95d8c6743ffc10c4a5e7405fb3876c1abf81453105c4260405160405180910390a350565b600260009054906101000a900473ffffffffffffffffffffffffffffffffffffffff1673ffffffffffffffffffffffffffffffffffffffff163373ffffffffffffffffffffffffffffffffffffffff1614610e77576040517f08c379a0000000000000000000000000000000000000000000000000000000008152600401610e6e906132c3565b60405180910390fd5b610e7f61268f565b806003541015610ec4576040517f08c379a0000000000000000000000000000000000000000000000000000000008152600401610ebb90613423565b60405180910390fd5b6000600260009054906101000a900473ffffffffffffffffffffffffffffffffffffffff1673ffffffffffffffffffffffffffffffffffffffff1682604051610f0c906131cc565b60006040518083038185875af1925050503d8060008114610f49576040519150601f19603f3d011682016040523d82523d6000602084013e610f4e565b606091505b5050905080610f92576040517f08c379a0000000000000000000000000000000000000000000000000000000008152600401610f8990613323565b60405180910390fd5b8160036000828254039250508190555050610fab6126df565b50565b600260009054906101000a900473ffffffffffffffffffffffffffffffffffffffff1673ffffffffffffffffffffffffffffffffffffffff163373ffffffffffffffffffffffffffffffffffffffff161461103e576040517f08c379a0000000000000000000000000000000000000000000000000000000008152600401611035906132c3565b60405180910390fd5b61104860016126e9565b600061105460016126ff565b90506040518060c0016040528082815260200188888080601f016020809104026020016040519081016040528093929190818152602001838380828437600081840152601f19601f82011690508083019250505050505050815260200186868080601f016020809104026020016040519081016040528093929190818152602001838380828437600081840152601f19601f820116905080830192505050505050508152602001600280811115611134577f4e487b7100000000000000000000000000000000000000000000000000000000600052602160045260246000fd5b8152602001848152602001838152506005600083815260200190815260200160002060008201518160000155602082015181600101908051906020019061117c92919061270d565b50604082015181600201908051906020019061119992919061270d565b5060608201518160030160006101000a81548160ff021916908360028111156111eb577f4e487b7100000000000000000000000000000000000000000000000000000000600052602160045260246000fd5b02179055506080820151816004015560a08201518160050155905050807f1d26cfb076fd58c1fa5695bb34e5556995a0aa34ecc601438f9957d6a71439a36005600084815260200190815260200160002060010160056000858152602001908152602001600020600201600560008681526020019081526020016000206004015460056000878152602001908152602001600020600501546040516112939493929190613270565b60405180910390a250505050505050565b6112ac612793565b600060056000848152602001908152602001600020600001541415611306576040517f08c379a00000000000000000000000000000000000000000000000000000000081526004016112fd906132e3565b60405180910390fd5b600560008381526020019081526020016000206040518060c00160405290816000820154815260200160018201805461133e90613771565b80601f016020809104026020016040519081016040528092919081815260200182805461136a90613771565b80156113b75780601f1061138c576101008083540402835291602001916113b7565b820191906000526020600020905b81548152906001019060200180831161139a57829003601f168201915b505050505081526020016002820180546113d090613771565b80601f01602080910402602001604051908101604052809291908181526020018280546113fc90613771565b80156114495780601f1061141e57610100808354040283529160200191611449565b820191906000526020600020905b81548152906001019060200180831161142c57829003601f168201915b505050505081526020016003820160009054906101000a900460ff16600281111561149d577f4e487b7100000000000000000000000000000000000000000000000000000000600052602160045260246000fd5b60028111156114d5577f4e487b7100000000000000000000000000000000000000000000000000000000600052602160045260246000fd5b8152602001600482015481526020016005820154815250509050919050565b6000600260009054906101000a900473ffffffffffffffffffffffffffffffffffffffff1673ffffffffffffffffffffffffffffffffffffffff163373ffffffffffffffffffffffffffffffffffffffff1614611586576040517f08c379a000000000000000000000000000000000000000000000000000000000815260040161157d906132c3565b60405180910390fd5b600354905090565b611596612801565b61159f826125cd565b6115de576040517f08c379a00000000000000000000000000000000000000000000000000000000081526004016115d590613483565b60405180910390fd5b600460008373ffffffffffffffffffffffffffffffffffffffff1673ffffffffffffffffffffffffffffffffffffffff1681526020019081526020016000206040518060e00160405290816000820160009054906101000a900473ffffffffffffffffffffffffffffffffffffffff1673ffffffffffffffffffffffffffffffffffffffff1673ffffffffffffffffffffffffffffffffffffffff16815260200160018201805461168e90613771565b80601f01602080910402602001604051908101604052809291908181526020018280546116ba90613771565b80156117075780601f106116dc57610100808354040283529160200191611707565b820191906000526020600020905b8154815290600101906020018083116116ea57829003601f168201915b5050505050815260200160028201805461172090613771565b80601f016020809104026020016040519081016040528092919081815260200182805461174c90613771565b80156117995780601f1061176e57610100808354040283529160200191611799565b820191906000526020600020905b81548152906001019060200180831161177c57829003601f168201915b505050505081526020016003820154815260200160048201548152602001600582015481526020016006820154815250509050919050565b6000600260009054906101000a900473ffffffffffffffffffffffffffffffffffffffff1673ffffffffffffffffffffffffffffffffffffffff163373ffffffffffffffffffffffffffffffffffffffff1614611863576040517f08c379a000000000000000000000000000000000000000000000000000000000815260040161185a906132c3565b60405180910390fd5b47905090565b6000600260009054906101000a900473ffffffffffffffffffffffffffffffffffffffff16905090565b600260009054906101000a900473ffffffffffffffffffffffffffffffffffffffff1673ffffffffffffffffffffffffffffffffffffffff163373ffffffffffffffffffffffffffffffffffffffff1614611923576040517f08c379a000000000000000000000000000000000000000000000000000000000815260040161191a906132c3565b60405180910390fd5b60006005600084815260200190815260200160002060000154141561197d576040517f08c379a000000000000000000000000000000000000000000000000000000000815260040161197490613303565b60405180910390fd5b806005600084815260200190815260200160002060030160006101000a81548160ff021916908360028111156119dc577f4e487b7100000000000000000000000000000000000000000000000000000000600052602160045260246000fd5b0217905550817fa2038badc9c4004a10f632052c54b0011bb307c2cadc65f22071f61ffd10663382604051611a11919061321e565b60405180910390a25050565b6060600080611a2c60016126ff565b90506000600190505b818111611af957846002811115611a75577f4e487b7100000000000000000000000000000000000000000000000000000000600052602160045260246000fd5b6005600083815260200190815260200160002060030160009054906101000a900460ff166002811115611ad1577f4e487b7100000000000000000000000000000000000000000000000000000000600052602160045260246000fd5b1415611ae6578280611ae2906137a3565b9350505b8080611af1906137a3565b915050611a35565b5060008267ffffffffffffffff811115611b3c577f4e487b7100000000000000000000000000000000000000000000000000000000600052604160045260246000fd5b604051908082528060200260200182016040528015611b7557816020015b611b62612793565b815260200190600190039081611b5a5790505b509050600092506000600190505b828111611e7257856002811115611bc3577f4e487b7100000000000000000000000000000000000000000000000000000000600052602160045260246000fd5b6005600083815260200190815260200160002060030160009054906101000a900460ff166002811115611c1f577f4e487b7100000000000000000000000000000000000000000000000000000000600052602160045260246000fd5b1415611e5f57600560008281526020019081526020016000206040518060c001604052908160008201548152602001600182018054611c5d90613771565b80601f0160208091040260200160405190810160405280929190818152602001828054611c8990613771565b8015611cd65780601f10611cab57610100808354040283529160200191611cd6565b820191906000526020600020905b815481529060010190602001808311611cb957829003601f168201915b50505050508152602001600282018054611cef90613771565b80601f0160208091040260200160405190810160405280929190818152602001828054611d1b90613771565b8015611d685780601f10611d3d57610100808354040283529160200191611d68565b820191906000526020600020905b815481529060010190602001808311611d4b57829003601f168201915b505050505081526020016003820160009054906101000a900460ff166002811115611dbc577f4e487b7100000000000000000000000000000000000000000000000000000000600052602160045260246000fd5b6002811115611df4577f4e487b7100000000000000000000000000000000000000000000000000000000600052602160045260246000fd5b815260200160048201548152602001600582015481525050828581518110611e45577f4e487b7100000000000000000000000000000000000000000000000000000000600052603260045260246000fd5b60200260200101819052508380611e5b906137a3565b9450505b8080611e6a906137a3565b915050611b83565b50809350505050919050565b611e87336125cd565b611ec6576040517f08c379a0000000000000000000000000000000000000000000000000000000008152600401611ebd90613483565b60405180910390fd5b34600460003373ffffffffffffffffffffffffffffffffffffffff1673ffffffffffffffffffffffffffffffffffffffff1681526020019081526020016000206004016000828254611f1891906135c8565b925050819055503373ffffffffffffffffffffffffffffffffffffffff167fe1fffcc4923d04b559f4d29a8bfc6cda04eb5b0d3c460751c2402c5c5cc9109c34604051611f659190613527565b60405180910390a2565b600260009054906101000a900473ffffffffffffffffffffffffffffffffffffffff1673ffffffffffffffffffffffffffffffffffffffff163373ffffffffffffffffffffffffffffffffffffffff1614611fff576040517f08c379a0000000000000000000000000000000000000000000000000000000008152600401611ff6906132c3565b60405180910390fd5b600060056000898152602001908152602001600020600001541415612059576040517f08c379a000000000000000000000000000000000000000000000000000000000815260040161205090613403565b60405180910390fd5b60006005600089815260200190815260200160002090506000878790501461209057868682600101919061208e929190612854565b505b600085859050146120b05784848260020191906120ae929190612854565b505b60008311156120c3578281600401819055505b60008211156120d6578181600501819055505b877f10e3e3a462a9f4c167783d47719e646c87b1a773b083fb5eef04a076e887079c82600101836002018460040154856005015460405161211a9493929190613270565b60405180910390a25050505050505050565b612135336125cd565b612174576040517f08c379a000000000000000000000000000000000000000000000000000000000815260040161216b90613483565b60405180910390fd5b6000600460003373ffffffffffffffffffffffffffffffffffffffff1673ffffffffffffffffffffffffffffffffffffffff1681526020019081526020016000206005015490506000600460003373ffffffffffffffffffffffffffffffffffffffff1673ffffffffffffffffffffffffffffffffffffffff16815260200190815260200160002060040154905060008211612245576040517f08c379a000000000000000000000000000000000000000000000000000000000815260040161223c90613383565b60405180910390fd5b81811015612288576040517f08c379a000000000000000000000000000000000000000000000000000000000815260040161227f90613443565b60405180910390fd5b81600460003373ffffffffffffffffffffffffffffffffffffffff1673ffffffffffffffffffffffffffffffffffffffff1681526020019081526020016000206004016000828254039250508190555081600360008282546122ea91906135c8565b925050819055506000600460003373ffffffffffffffffffffffffffffffffffffffff1673ffffffffffffffffffffffffffffffffffffffff168152602001908152602001600020600501819055503373ffffffffffffffffffffffffffffffffffffffff167f3a2d0e41c506b136330c6e5e0295ccbf0966daece99bfe7c89020cc01dbfb8d68360405161237f9190613527565b60405180910390a25050565b61239361268f565b61239c336125cd565b6123db576040517f08c379a00000000000000000000000000000000000000000000000000000000081526004016123d290613483565b60405180910390fd5b6000600460003373ffffffffffffffffffffffffffffffffffffffff1673ffffffffffffffffffffffffffffffffffffffff16815260200190815260200160002060040154905081811015612465576040517f08c379a000000000000000000000000000000000000000000000000000000000815260040161245c906133c3565b60405180910390fd5b81600460003373ffffffffffffffffffffffffffffffffffffffff1673ffffffffffffffffffffffffffffffffffffffff1681526020019081526020016000206004016000828254039250508190555060003373ffffffffffffffffffffffffffffffffffffffff16836040516124db906131cc565b60006040518083038185875af1925050503d8060008114612518576040519150601f19603f3d011682016040523d82523d6000602084013e61251d565b606091505b5050905080612561576040517f08c379a000000000000000000000000000000000000000000000000000000000815260040161255890613323565b60405180910390fd5b3373ffffffffffffffffffffffffffffffffffffffff167f21893164130d41dd88db826eaf3b6bdfbf9b9299040367477a621ca6d3641162846040516125a79190613527565b60405180910390a250506125b96126df565b50565b60006125c860016126ff565b905090565b60008073ffffffffffffffffffffffffffffffffffffffff16600460008473ffffffffffffffffffffffffffffffffffffffff1673ffffffffffffffffffffffffffffffffffffffff16815260200190815260200160002060000160009054906101000a900473ffffffffffffffffffffffffffffffffffffffff1673ffffffffffffffffffffffffffffffffffffffff1614159050919050565b600080603c84612678919061361e565b90508281612686919061364f565b91505092915050565b600260005414156126d5576040517f08c379a00000000000000000000000000000000000000000000000000000000081526004016126cc906134a3565b60405180910390fd5b6002600081905550565b6001600081905550565b6001816000016000828254019250508190555050565b600081600001549050919050565b82805461271990613771565b90600052602060002090601f01602090048101928261273b5760008555612782565b82601f1061275457805160ff1916838001178555612782565b82800160010185558215612782579182015b82811115612781578251825591602001919060010190612766565b5b50905061278f91906128da565b5090565b6040518060c00160405280600081526020016060815260200160608152602001600060028111156127ed577f4e487b7100000000000000000000000000000000000000000000000000000000600052602160045260246000fd5b815260200160008152602001600081525090565b6040518060e00160405280600073ffffffffffffffffffffffffffffffffffffffff1681526020016060815260200160608152602001600081526020016000815260200160008152602001600081525090565b82805461286090613771565b90600052602060002090601f01602090048101928261288257600085556128c9565b82601f1061289b57803560ff19168380011785556128c9565b828001600101855582156128c9579182015b828111156128c85782358255916020019190600101906128ad565b5b5090506128d691906128da565b5090565b5b808211156128f35760008160009055506001016128db565b5090565b60008135905061290681613bd5565b92915050565b60008135905061291b81613bec565b92915050565b60008083601f84011261293357600080fd5b8235905067ffffffffffffffff81111561294c57600080fd5b60208301915083600182028301111561296457600080fd5b9250929050565b60008135905061297a81613bfc565b92915050565b60006020828403121561299257600080fd5b60006129a0848285016128f7565b91505092915050565b6000602082840312156129bb57600080fd5b60006129c98482850161290c565b91505092915050565b600080600080604085870312156129e857600080fd5b600085013567ffffffffffffffff811115612a0257600080fd5b612a0e87828801612921565b9450945050602085013567ffffffffffffffff811115612a2d57600080fd5b612a3987828801612921565b925092505092959194509250565b60008060008060008060808789031215612a6057600080fd5b600087013567ffffffffffffffff811115612a7a57600080fd5b612a8689828a01612921565b9650965050602087013567ffffffffffffffff811115612aa557600080fd5b612ab189828a01612921565b94509450506040612ac489828a0161296b565b9250506060612ad589828a0161296b565b9150509295509295509295565b600060208284031215612af457600080fd5b6000612b028482850161296b565b91505092915050565b60008060408385031215612b1e57600080fd5b6000612b2c8582860161296b565b9250506020612b3d8582860161290c565b9150509250929050565b600080600080600080600060a0888a031215612b6257600080fd5b6000612b708a828b0161296b565b975050602088013567ffffffffffffffff811115612b8d57600080fd5b612b998a828b01612921565b9650965050604088013567ffffffffffffffff811115612bb857600080fd5b612bc48a828b01612921565b94509450506060612bd78a828b0161296b565b9250506080612be88a828b0161296b565b91505092959891949750929550565b6000612c038383612feb565b905092915050565b612c14816136dd565b82525050565b612c23816136dd565b82525050565b6000612c3482613567565b612c3e818561358a565b935083602082028501612c5085613542565b8060005b85811015612c8c5784840389528151612c6d8582612bf7565b9450612c788361357d565b925060208a01995050600181019050612c54565b50829750879550505050505092915050565b612ca78161372c565b82525050565b612cb68161372c565b82525050565b6000612cc782613572565b612cd181856135a6565b9350612ce181856020860161373e565b612cea816138a8565b840191505092915050565b60008154612d0281613771565b612d0c81866135b7565b94506001821660008114612d275760018114612d3957612d6c565b60ff1983168652602086019350612d6c565b612d4285613552565b60005b83811015612d6457815481890152600182019150602081019050612d45565b808801955050505b50505092915050565b6000612d826025836135b7565b9150612d8d826138b9565b604082019050919050565b6000612da56012836135b7565b9150612db082613908565b602082019050919050565b6000612dc86020836135b7565b9150612dd382613931565b602082019050919050565b6000612deb600f836135b7565b9150612df68261395a565b602082019050919050565b6000612e0e601d836135b7565b9150612e1982613983565b602082019050919050565b6000612e31601c836135b7565b9150612e3c826139ac565b602082019050919050565b6000612e546017836135b7565b9150612e5f826139d5565b602082019050919050565b6000612e77601d836135b7565b9150612e82826139fe565b602082019050919050565b6000612e9a6020836135b7565b9150612ea582613a27565b602082019050919050565b6000612ebd6013836135b7565b9150612ec882613a50565b602082019050919050565b6000612ee06020836135b7565b9150612eeb82613a79565b602082019050919050565b6000612f036029836135b7565b9150612f0e82613aa2565b604082019050919050565b6000612f26601d836135b7565b9150612f3182613af1565b602082019050919050565b6000612f496014836135b7565b9150612f5482613b1a565b602082019050919050565b6000612f6c6013836135b7565b9150612f7782613b43565b602082019050919050565b6000612f8f60008361359b565b9150612f9a82613b6c565b600082019050919050565b6000612fb2601f836135b7565b9150612fbd82613b6f565b602082019050919050565b6000612fd56019836135b7565b9150612fe082613b98565b602082019050919050565b600060c08301600083015161300360008601826131ae565b506020830151848203602086015261301b8282612cbc565b915050604083015184820360408601526130358282612cbc565b915050606083015161304a6060860182612c9e565b50608083015161305d60808601826131ae565b5060a083015161307060a08601826131ae565b508091505092915050565b600060c08301600083015161309360008601826131ae565b50602083015184820360208601526130ab8282612cbc565b915050604083015184820360408601526130c58282612cbc565b91505060608301516130da6060860182612c9e565b5060808301516130ed60808601826131ae565b5060a083015161310060a08601826131ae565b508091505092915050565b600060e0830160008301516131236000860182612c0b565b506020830151848203602086015261313b8282612cbc565b915050604083015184820360408601526131558282612cbc565b915050606083015161316a60608601826131ae565b50608083015161317d60808601826131ae565b5060a083015161319060a08601826131ae565b5060c08301516131a360c08601826131ae565b508091505092915050565b6131b781613722565b82525050565b6131c681613722565b82525050565b60006131d782612f82565b9150819050919050565b60006020820190506131f66000830184612c1a565b92915050565b600060208201905081810360008301526132168184612c29565b905092915050565b60006020820190506132336000830184612cad565b92915050565b600060408201905081810360008301526132538185612cf5565b905081810360208301526132678184612cf5565b90509392505050565b6000608082019050818103600083015261328a8187612cf5565b9050818103602083015261329e8186612cf5565b90506132ad60408301856131bd565b6132ba60608301846131bd565b95945050505050565b600060208201905081810360008301526132dc81612d75565b9050919050565b600060208201905081810360008301526132fc81612d98565b9050919050565b6000602082019050818103600083015261331c81612dbb565b9050919050565b6000602082019050818103600083015261333c81612dde565b9050919050565b6000602082019050818103600083015261335c81612e01565b9050919050565b6000602082019050818103600083015261337c81612e24565b9050919050565b6000602082019050818103600083015261339c81612e47565b9050919050565b600060208201905081810360008301526133bc81612e6a565b9050919050565b600060208201905081810360008301526133dc81612e8d565b9050919050565b600060208201905081810360008301526133fc81612eb0565b9050919050565b6000602082019050818103600083015261341c81612ed3565b9050919050565b6000602082019050818103600083015261343c81612ef6565b9050919050565b6000602082019050818103600083015261345c81612f19565b9050919050565b6000602082019050818103600083015261347c81612f3c565b9050919050565b6000602082019050818103600083015261349c81612f5f565b9050919050565b600060208201905081810360008301526134bc81612fa5565b9050919050565b600060208201905081810360008301526134dc81612fc8565b9050919050565b600060208201905081810360008301526134fd818461307b565b905092915050565b6000602082019050818103600083015261351f818461310b565b905092915050565b600060208201905061353c60008301846131bd565b92915050565b6000819050602082019050919050565b60008190508160005260206000209050919050565b600081519050919050565b600081519050919050565b6000602082019050919050565b600082825260208201905092915050565b600081905092915050565b600082825260208201905092915050565b600082825260208201905092915050565b60006135d382613722565b91506135de83613722565b9250827fffffffffffffffffffffffffffffffffffffffffffffffffffffffffffffffff03821115613613576136126137ec565b5b828201905092915050565b600061362982613722565b915061363483613722565b9250826136445761364361381b565b5b828204905092915050565b600061365a82613722565b915061366583613722565b9250817fffffffffffffffffffffffffffffffffffffffffffffffffffffffffffffffff048311821515161561369e5761369d6137ec565b5b828202905092915050565b60006136b482613722565b91506136bf83613722565b9250828210156136d2576136d16137ec565b5b828203905092915050565b60006136e882613702565b9050919050565b60008190506136fd82613bc1565b919050565b600073ffffffffffffffffffffffffffffffffffffffff82169050919050565b6000819050919050565b6000613737826136ef565b9050919050565b60005b8381101561375c578082015181840152602081019050613741565b8381111561376b576000848401525b50505050565b6000600282049050600182168061378957607f821691505b6020821081141561379d5761379c613879565b5b50919050565b60006137ae82613722565b91507fffffffffffffffffffffffffffffffffffffffffffffffffffffffffffffffff8214156137e1576137e06137ec565b5b600182019050919050565b7f4e487b7100000000000000000000000000000000000000000000000000000000600052601160045260246000fd5b7f4e487b7100000000000000000000000000000000000000000000000000000000600052601260045260246000fd5b7f4e487b7100000000000000000000000000000000000000000000000000000000600052602160045260246000fd5b7f4e487b7100000000000000000000000000000000000000000000000000000000600052602260045260246000fd5b6000601f19601f8301169050919050565b7f4f6e6c7920746865206f776e65722063616e2063616c6c20746869732066756e60008201527f6374696f6e000000000000000000000000000000000000000000000000000000602082015250565b7f43617220646f6573206e6f742065786973740000000000000000000000000000600082015250565b7f436172207769746820676976656e20696420646f6573206e6f74206578697374600082015250565b7f5472616e73666572206661696c65640000000000000000000000000000000000600082015250565b7f557365722068617320616e206f75747374616e64696e67206465627421000000600082015250565b7f436172206973206e6f7420417661696c61626c6520666f722075736500000000600082015250565b7f5573657220686173206e6f206465627420746f20706179000000000000000000600082015250565b7f557365722068617320616c72656164792072656e746564206120636172000000600082015250565b7f496e73756666696369656e742062616c616e636520746f207769746864726177600082015250565b7f5573657220616c72656164792065786973747300000000000000000000000000600082015250565b7f436172207769746820676976656e20496420646f6573206e6f74206578697374600082015250565b7f496e73756666696369656e7420636f6e74726163742062616c616e636520746f60008201527f2077697468647261770000000000000000000000000000000000000000000000602082015250565b7f557365722068617320696e73756666696369656e742062616c616e6365000000600082015250565b7f5573657220646f6573206e6f7420657869737421000000000000000000000000600082015250565b7f5573657220646f6573206e6f7420657869737400000000000000000000000000600082015250565b50565b7f5265656e7472616e637947756172643a207265656e7472616e742063616c6c00600082015250565b7f5573657220686173206e6f742072656e74656420612063617200000000000000600082015250565b60038110613bd257613bd161384a565b5b50565b613bde816136dd565b8114613be957600080fd5b50565b60038110613bf957600080fd5b50565b613c0581613722565b8114613c1057600080fd5b5056fea2646970667358221220252d69e0657e4c248b71c3fc7c8093fa25745bb7a3ea112f14b3937649a70ca564736f6c63430008040033",
  "immutableReferences": {},
  "source": "// SPDX-License-Identifier: MIT\r\npragma solidity ^0.8.4;\r\n\r\nimport \"@openzeppelin/contracts/utils/Counters.sol\";\r\n// import \"@openzeppelin/contracts/security/ReentrancyGuard.sol\";\r\nimport \"@openzeppelin/contracts/security/ReentrancyGuard.sol\";\r\n\r\ncontract CarRental is ReentrancyGuard{\r\n  //DATA\r\n\r\n  //Counter\r\n  using Counters for Counters.Counter;\r\n  Counters.Counter private _counter;\r\n\r\n  //Owner\r\n  address private owner;\r\n\r\n  //totalPayments\r\n  uint private totalPayments;\r\n\r\n  //user struct\r\n  struct User{\r\n    address walletAddress;\r\n    string name;\r\n    string lastname;\r\n    uint rentedCarId;\r\n    uint balance;\r\n    uint debt;\r\n    uint start;\r\n  }\r\n\r\n  //car struct\r\n  struct Car{\r\n    uint id;\r\n    string name;\r\n    string imgUrl;\r\n    Status status;\r\n    uint rentFee;\r\n    uint saleFee;\r\n  }\r\n\r\n  //enum to indicate status of car\r\n\r\n  enum Status{\r\n    Retired,\r\n    InUse,\r\n    Available\r\n  }\r\n\r\n  //events\r\n  event CarAdded(uint indexed id,string name,string imgUrl,uint rentfee,uint saleFee);\r\n  event CarMetadataEdited(uint indexed id,string name, string imgUrl,uint rentFee,uint saleFee);\r\n  event CarStatusEdited(uint indexed id,Status status);\r\n  event UserAdded(address indexed walletAddress,string name,string lastname);\r\n  event Deposit(address indexed walletAddress,uint amount);\r\n  event CheckOut(address indexed walletAddress,uint indexed carid);\r\n  event CheckIn(address indexed walletAddress,uint indexed carId);\r\n  event PaymentMade(address indexed walletAddress,uint amount);\r\n  event Balancewithdraw(address indexed walletAddress,uint amount);\r\n  \r\n  //user mapping\r\n  mapping(address=>User) private users;\r\n\r\n\r\n  //car mapping\r\n  mapping(uint=>Car) private cars;\r\n\r\n  //constructor\r\n  constructor(){\r\n    owner=msg.sender;\r\n    totalPayments=0;\r\n  }\r\n\r\n  //MODIFIERs\r\n  //onlyOwner\r\n  modifier onlyOwner(){\r\n    require(msg.sender==owner,\"Only the owner can call this function\");\r\n    _;\r\n  }\r\n\r\n  //FUNCTIONS\r\n  //Execute Functions\r\n  \r\n  //setOwner #onlyOwner\r\n  function setOwner(address _newOwner) external onlyOwner(){\r\n    owner =_newOwner;\r\n  }  \r\n\r\n  //addUser  #nonExisting\r\n  function addUser(string calldata name,string calldata lastname) external {\r\n    require(!isUser(msg.sender),\"User already exists\");\r\n    users[msg.sender]=User(msg.sender,name,lastname,0,0,0,0);\r\n\r\n    emit UserAdded(msg.sender, users[msg.sender].name, users[msg.sender].lastname);\r\n  }\r\n\r\n  //addCar #onlyOwner #nonExistingCar\r\n  function addCar(string calldata name,string calldata url,uint rent,uint sale) external onlyOwner{\r\n    _counter.increment();\r\n    uint counter=_counter.current();\r\n    cars[counter]=Car(counter,name,url,Status.Available,rent,sale);\r\n\r\n    emit CarAdded(counter, cars[counter].name, cars[counter].imgUrl, cars[counter].rentFee, cars[counter].saleFee);\r\n  }\r\n\r\n  //editCarMetadata #onlyOwner #existingCar\r\n  function editCarMetadata(uint id,string calldata name,string calldata imgUrl,uint rentFee,uint saleFee) external onlyOwner{\r\n    require(cars[id].id!=0,\"Car with given Id does not exist\");\r\n    Car storage car=cars[id];\r\n    if(bytes(name).length!=0){\r\n      car.name=name;\r\n    }\r\n    if(bytes(imgUrl).length!=0){\r\n      car.imgUrl=imgUrl;\r\n    }\r\n    if(rentFee>0){\r\n      car.rentFee=rentFee;\r\n    }\r\n    if(saleFee>0){\r\n      car.saleFee=saleFee;\r\n    }\r\n    emit CarMetadataEdited(id, car.name, car.imgUrl, car.rentFee, car.saleFee);\r\n  }\r\n\r\n  //editCarStatus #onlyOwner #existingCar\r\n  function editCarStatus(uint id,Status status) external onlyOwner{\r\n    require(cars[id].id!=0,\"Car with given id does not exist\");\r\n    cars[id].status=status;\r\n\r\n    emit CarStatusEdited(id, status);\r\n  }\r\n\r\n  //checkOut #existingUser #isCarAvailable\r\n  function checkOut(uint id) external{\r\n    require(isUser(msg.sender),\"User does not exist!\");\r\n    require(cars[id].status==Status.Available,\"Car is not Available for use\");\r\n    require(users[msg.sender].rentedCarId==0,\"User has already rented a car\");\r\n    require(users[msg.sender].debt==0,\"User has an outstanding debt!\");\r\n\r\n    users[msg.sender].start=block.timestamp;\r\n    users[msg.sender].rentedCarId=id;\r\n    cars[id].status=Status.InUse;\r\n\r\n    emit CheckOut(msg.sender,id);\r\n  }\r\n\r\n  //checkIn #existingUser #userHasRentedACar\r\n  function checkIn() external{\r\n    require(isUser(msg.sender),\"User does not exist!\");\r\n    uint rentedCarId = users[msg.sender].rentedCarId;\r\n    require(rentedCarId!=0,\"User has not rented a car\");\r\n\r\n    uint usedSeconds=block.timestamp-users[msg.sender].start;\r\n    uint rentFee=cars[rentedCarId].rentFee;\r\n    users[msg.sender].debt+=calculateDebt(usedSeconds,rentFee);\r\n\r\n    users[msg.sender].rentedCarId=0;\r\n    users[msg.sender].start=0;\r\n    cars[rentedCarId].status=Status.Available;\r\n    emit CheckIn(msg.sender, rentedCarId);\r\n\r\n  }\r\n\r\n  //deposit #existingUser\r\n  function deposit() external payable{\r\n    require(isUser(msg.sender),\"User does not exist\");\r\n    users[msg.sender].balance+=msg.value;\r\n\r\n    emit Deposit(msg.sender, msg.value);\r\n  }\r\n\r\n  //makePayment #existingUser #existingDebt #sufficient Balance\r\nfunction makePayment() external{\r\n  require(isUser(msg.sender),\"User does not exist\");\r\n  uint debt=users[msg.sender].debt;\r\n  uint balance=users[msg.sender].balance;\r\n\r\n  require(debt>0,\"User has no debt to pay\");\r\n  require(balance>= debt,\"User has insufficient balance\");\r\n\r\n  unchecked {\r\n    users[msg.sender].balance-=debt;\r\n  }\r\n  totalPayments+=debt;\r\n  users[msg.sender].debt=0;\r\n\r\n  emit PaymentMade(msg.sender, debt);\r\n}\r\n\r\n  //withdrawalBalance #existingUser\r\n  function withdrawBalance(uint amount) external nonReentrant{\r\n    require(isUser(msg.sender),\"User does not exist\");\r\n    uint balance=users[msg.sender].balance;\r\n    require(balance>=amount,\"Insufficient balance to withdraw\");\r\n     \r\n    unchecked {\r\n      users[msg.sender].balance-=amount;\r\n    }\r\n    (bool success,)=msg.sender.call{value:amount}(\"\");\r\n    require(success,\"Transfer failed\");\r\n\r\n    emit Balancewithdraw(msg.sender,amount);\r\n  }\r\n\r\n  //withfrawOwnerBalance #onlyOwner\r\n  function withdrawOwnerBalance(uint amount) external onlyOwner nonReentrant{\r\n    require(totalPayments>=amount,\"Insufficient contract balance to withdraw\");\r\n\r\n    (bool success,)=owner.call{value: amount}(\"\");\r\n    require(success,\"Transfer failed\");\r\n\r\n    unchecked {\r\n      totalPayments-=amount;\r\n    }\r\n  }\r\n\r\n  //Query Functions\r\n\r\n  //getOwner\r\n  function getOwner() external view returns(address){\r\n    return owner;\r\n  }\r\n\r\n  //isUser\r\n  function isUser(address walletAddress) private view returns(bool){\r\n    return users[walletAddress].walletAddress!=address(0);\r\n  }\r\n\r\n  //getUser #getexistinguser\r\n  function getUser(address walletAddress) external view returns(User memory){\r\n    require(isUser(walletAddress),\"User does not exist\");\r\n    return users[walletAddress];\r\n  }  \r\n\r\n  //getCar #existingCar\r\n  function getCar(uint id) external view returns(Car memory){\r\n    require(cars[id].id!=0,\"Car does not exist\");\r\n    return cars[id];\r\n  }\r\n\r\n  //getCarbyStatus\r\nfunction getCarsByStatus(Status _status) external view returns(Car[] memory){\r\nuint count=0;\r\nuint length=_counter.current();\r\nfor(uint i=1;i<=length;i++){\r\n  if(cars[i].status==_status){\r\n    count++;\r\n  }\r\n}\r\nCar[] memory carsWithStatus=new Car[] (count);\r\ncount=0;\r\nfor(uint i=1;i<=length;i++){\r\n  if(cars[i].status==_status){\r\n    carsWithStatus[count]=cars[i];\r\n    count++;\r\n  }\r\n}  \r\nreturn carsWithStatus;\r\n}\r\n  //calculateDebt\r\nfunction calculateDebt(uint usedSeconds,uint rentFee) private pure returns(uint){\r\n  uint usedMinutes=usedSeconds/60;\r\n  return usedMinutes*rentFee;\r\n}\r\n  //getCurrentCount\r\n  function getCurrentCount() external view returns(uint){\r\n    return _counter.current();\r\n  }\r\n\r\n  //getContractBalance\r\n  function getContractBalance() external view onlyOwner returns(uint){\r\n    return address(this).balance;\r\n  }\r\n\r\n  //getContractBalance #onlyOwner\r\n\r\n  \r\n  //getTotalPayment #onlyOwner\r\n  function getTotalPayment() external view onlyOwner returns(uint){\r\n    return totalPayments;\r\n  }\r\n\r\n}\r\n",
  "sourcePath": "D:\\Projects\\BlockChain\\DriveHive\\contracts\\CarRental.sol",
  "compiler": {
    "name": "solc",
    "version": "0.8.4+commit.c7e474f2.Emscripten.clang"
  },
  "schemaVersion": "3.4.16",
  "updatedAt": "2025-05-19T10:03:27.132Z",
  "networkType": "ethereum",
  "devdoc": {
    "kind": "dev",
    "methods": {},
    "version": 1
  },
  "userdoc": {
    "kind": "user",
    "methods": {},
    "version": 1
  }
}